:0E0000002BC0FECFFDCFFCCFFBCF22C1C7C06F
:10000E00F8CFF7CFF6CFF5CFF4CFF3CFF2CFF1CFC6
:10001E00F0CFEFCFEECFEDCF00000B0B0B0BFA8234
:10002E00B9ABC36B7BA2FBEB00019B787900280078
:10003E000200020026000400890028000F0096002E
:10004E002C000100A8003C000000F894EE27ECBB49
:10005E00E5BFF8E1A895A4B7A77FA4BFF1BDE1BDA8
:10006E008DE0A2E0ED938A95E9F780E8A0E6ED93A6
:10007E008A95E9F7EEE3F0E085919591009761F0AE
:10008E00A591B59105901590BF01F00105900D92C7
:10009E000197E1F7FB01F0CFE2E8E3BBE0E0E4BB60
:1000AE00E5BBEFEDEDBFC8E87DC1BA93AA939ED232
:1000BE009C993EC0AD81AA232AF4EC81FD81A0D289
:1000CE009F0102C02C813D8110E0143078F4E3E0F2
:1000DE00E11BE7570E2FD90149D2C1D2A02FEC93C5
:1000EE00D90144D2B7D29F011F5FEFCFE0918900B3
:1000FE00E03051F4EAE0E0938900E0918A00E030CC
:10010E0019F4EAE0E0938A00AD81AA231AF4EBE039
:10011E00E0938900E22DE23011F4ECE007C0E33009
:10012E0021F0E03029F4AA2019F4EEE0E0938900E2
:10013E0062D2269608955CD2E22DE030B9F4AA2060
:10014E0019F40B2D112701C0820113D2A4D2E6158A
:10015E00F70519F0F3010DD2ADD20ED29CD2E815EF
:10016E00F90519F0F40108D2A5D20CC0E13011F452
:10017E00830108C0E23011F4840104C0E33011F4AD
:10018E000B2D1127D80191DF099119910895F7D1FF
:10019E00E5EBE2BFD394EFE3DE2258D1F5C01A931C
:1001AE00999904C080E496E00197F1F710E01430BD
:1001BE0008F045C0A198C394D5FE09C0222039F499
:1001CE00A09B05C0AC2DE0E0E03009F4A19AE091CF
:1001DE008900E3D19B9903C0E6B3E460E8BBE1E09C
:1001EE00E21519F4E6B3E860E8BBA19902C0959850
:1001FE0001C0959AD6D1959AE0918A00CED1A19957
:10020E0002C0919801C0919ACCD1919AE0918B0045
:10021E00EA56E081E460E8BBA19902C0909801C063
:10022E00909ABFD1909AE0918C00B7D1A19902C05B
:10023E00949801C0949AB5D1949A1F5FB8CF199132
:10024E0008959DD1D3D1EEEEF5E8FDBDECBD999AA2
:10025E0049D2A5DFACEC8CD2A2DF9A9B02C09A9851
:10026E0001C09A9A9A9B60C0AEEB82D298DF9D9A9B
:10027E009E9810E01930A8F4E12FE357EF9373D254
:10028E00AF91EC938CDFADE8A10FAC91AF3F09F0CD
:10029E009D98ADE8A10FEC91E03009F09E9A1F5F9A
:1002AE00E9CF9C98EDE8EA93A8E06CD21E2FAA2025
:1002BE0049F4A0918D00A03529F4A0918E00A530AF
:1002CE0009F411509E9B1150E0919500E117E1F059
:1002DE00E1E0BE2E9D9B02C0E2E00DC0A0918D001C
:1002EE00A03531F4A0918E00A53011F4E3E0BE2EBE
:1002FE009E9902C0E4E0BE2EE0E0EA1508F4AA944E
:10030E00AA2009F4A09A0FC00DE8A02FED91FD913F
:10031E00AAE0B0E087D1DF01E0E1F0E09BD12F0150
:10032E000ADFE2E0AE2E02C0A4E422D2AA2029F413
:10033E00939892989F9A9B9A1DC09C991BC0F4010A
:10034E00E60DF71D9F014216530644F09B9902C01D
:10035E009F9B04C09298939A9B989F989301241503
:10036E00350544F09B9B02C09F9B04C09398929AC4
:10037E009B9A9F98E0E0E31510F43A9401C0222472
:10038E00DADE999838D12496E991EFBFF991E99187
:10039E00B991A9919991899179916991F990199051
:1003AE0009901895E0E8E6BDE0E0E6BDE3E0EBBBC2
:1003BE00E0E0EABBE8BBEFEFE7BBE3E7E2BBEFE36E
:1003CE00E1BBE0E0E0BFE5E0E3BFE0E0EFBDE4E08D
:1003DE00EEBDEFEFEDBDEEEFECBDE2E8E9BFE0E81C
:1003EE00E8B9CC24C9D057D1319621F4DFD0C4D08E
:1003FE00BDD060D1BED04FD1E33EA4E0FA0724F4C5
:10040E00EA3DADEFFA070CF4D1D0B6D044D1EB3FB4
:10041E00A0E0FA0714F431971CF4AED0A7D04AD15D
:10042E00A8D039D13F01A8D036D14F01BB24E1E08D
:10043E00AE2EA0989C9A9B9A7EDE9A9A9898BBD0E4
:10044E007894F894ACDE7894FCCFFFCFE0918800DE
:10045E00E03051F4B4D039F0B2D0E093A600B4D06D
:10046E00E1E0E093880031C0E130B9F4A8D0A0916A
:10047E00A600EA1781F4ACD0AED061F4989AE09160
:10048E00A600E093A500E2E0E09388009DD0E0E5B1
:10049E00E093A80001C08FD018C0E230B1F48FD025
:1004AE0069F092D0E091A800E03021F4E8E0E0930A
:1004BE00A800989AE091A800E15005C089D08BD091
:1004CE0021F479D0E0E5E093A800989B02C09898BB
:1004DE0001D00895E091A500E130E9F4E22DE1307C
:1004EE0079F4EAEDFDEFE615F7051CF4F3013A9702
:1004FE003F01EAEDFDEF6E167F060CF43F010AC0D8
:10050E00E23041F4E1E0F0E0E815F9051CF4F40105
:10051E0031974F0126C0E230E1F4E22DE13071F463
:10052E0060D06E167F061CF4F3013A963F0159D047
:10053E00E615F70514F455D03F010AC0E23041F438
:10054E00EAEFF0E08E169F061CF4F40131964F018F
:10055E0008C0E33031F42394E3E0E21510F4E1E057
:10056E002E2EE5E03E2EA098E6DD0895EAE0F0E0BE
:10057E000895A0E0B0E00895A2E0B0E008950A92D8
:10058E001A92FA926A937A938A939A93AA93BA9347
:10059E00EA93FA93EFB7EA930895EA56E081E8BB3F
:1005AE00089580EB94E00197F1F70895E2DFE8E11A
:1005BE00F1E080D00895E0E0E09388000895E9B37B
:1005CE00E370A3E0EA270895E4E0E093A70008951E
:1005DE00E091A7000895E150E093A700F9DFE03025
:1005EE000895E2EEF4E0E819F90908953A932A9392
:1005FE001A930A9308953B812A81198108810895DF
:10060E00F195E195F040089581E10024111805C09F
:10061E0010F40A0E1B1E16940794F795E7958A950B
:10062E00B9F708952AD0F0DF0EF4EADF089500241A
:10063E00112490E1AA0FBB1F001C111C0E1A1F0AD9
:10064E0018F40E0E1F1E01C0A1609A9599F7FD01B8
:10065E00D001089512D0EBDF0EF4D2DF0895E894A6
:10066E00B7FF04C0B195A195B0406894F7FDC8DFFF
:10067E00DEDFFD010EF4C4DF0895E894F7FF02C03B
:10068E00BFDF6894B7FF06C0B195A195B04000F8E2
:10069E00039400FA0895119602D0FE2F1197E19956
:1006AE00FECFFF93FFB7F894AEBBE09AEDB3FFBF5A
:1006BE00FF91089507D01196EF93EF2F03D0EF918E
:1006CE0011970895E19B02C0A895FCCF9FB7F894AF
:1006DE00AEBBE09A8DB3E81719F0EDBBE29AE19A42
:1006EE009FBF0895EE2796988E9A80EC93E001971F
:1006FE00F1F78E9885E28A95F1F7869B08958BEC3B
:10070E008A95F1F7869BE1E08CE093E00197F1F793
:10071E0008958E9A85E08A95F1F78E988DE18A95E7
:10072E00F1F7889486990894E79585ED8A95F1F707
:10073E000895E8948E9A85E08A95F1F770FD8E986B
:10074E0083E28A95F1F7869903C070FF03C008957E
:10075E0070FF089588EC8A95F1F78E988DE08A9552
:10076E00F1F76894089568E0D4DF6A95E9F7089583
:10077E007A2F68E0EE27DDDF26F477956A95D9F7B4
:10078E00E3950895EE27AA2389F08A2F68E1A881C0
:10079E00BB2798E0FD917F2F7E27779508F4E627FB
:1007AE00E795F6959A95B9F78A9599F72196089552
:00000001FF
