:020000002BC013
:10000200FECFFDCFFCCFFBCF23C1C7C0F8CFF7CFC8
:10001200F6CFF5CFF4CFF3CFF2CFF1CFF0CFEFCFD2
:10002200EECFEDCF00000B0B0B0BFA82B9ABC36B1B
:100032007BA2FBEB00019B78790028000200020002
:1000420026000400890028000F0096002C00010001
:10005200A8003C000000F894EE27ECBBE5BFF8E1F5
:10006200A895A4B7A77FA4BFF1BDE1BD8DE0A2E032
:10007200ED938A95E9F780E8A0E6ED938A95E9F792
:10008200EEE3F0E085919591009761F0A591B5912D
:1000920005901590BF01F00105900D920197E1F7CF
:1000A200FB01F0CFE2E8E3BBE0E0E4BBE5BBEFED50
:1000B200EDBFC8E87EC1BA93AA93A0D29C993EC074
:1000C200AD81AA232AF4EC81FD81A2D29F0102C054
:1000D2002C813D8110E0143078F4E3E0E11BE75716
:1000E2000E2FD9014AD2C3D2A02FEC93D90145D207
:1000F200B9D29F011F5FEFCFE0918900E03051F448
:10010200EAE0E0938900E0918A00E03019F4EAE045
:10011200E0938A00AD81AA231AF4EBE0E093890010
:10012200E22DE23011F4ECE007C0E33021F0E030E0
:1001320029F4AA2019F4EEE0E093890064D226960D
:1001420008955ED2E22DE030B9F4AA2019F40B2D05
:10015200112701C0820114D2A6D2E615F70519F0C3
:10016200F3010ED2AFD20FD29ED2E815F90519F0E3
:10017200F40109D2A7D20CC0E13011F4830108C006
:10018200E23011F4840104C0E33011F40B2D112785
:10019200D80191DF099119910895F8D1E5EBE2BFF9
:1001A200D394EFE3DE2259D1F6C01A93999904C091
:1001B20080E496E00197F1F710E0143008F046C0B1
:1001C200A19AC394D5FE09C0222039F4A09B05C090
:1001D200AC2DE0E0E03009F4A198E0918900E4D18F
:1001E2009B9B03C0E6B3EB7FE8BBE1E0E21519F4A9
:1001F200E6B3E77FE8BBA19902C0959801C0959A42
:10020200D8D19598E0918A00CFD1A19902C0919856
:1002120001C0919ACED19198E0918B00EA56E0818B
:10022200E095EB7FE8BBA19902C0909801C0909A3B
:10023200C0D19098E0918C00B7D1A19902C0949856
:1002420001C0949AB6D194981F5FB7CF19910895BF
:100252009DD1D4D1EEEEF5E8FDBDECBD999A4AD21E
:10026200A4DFACEC8DD2A1DF9A9B02C09A9801C0A8
:100272009A9A9A9B60C0AEEB83D297DF9D9A9E9822
:1002820010E01930A8F4E12FE357EF9374D2AF9145
:10029200EC938BDFADE8A10FAC91AF3F09F09D98D5
:1002A200ADE8A10FEC91E03009F09E9A1F5FE9CF13
:1002B2009C98EDE8EA93A8E06DD21E2FAA2049F49B
:1002C200A0918D00A03529F4A0918E00A53009F4EB
:1002D20011509E9B1150E0919500E117E1F0E1E091
:1002E200BE2E9D9B02C0E2E00DC0A0918D00A03504
:1002F20031F4A0918E00A53011F4E3E0BE2E9E9958
:1003020002C0E4E0BE2EE0E0EA1508F4AA94AA20B6
:1003120009F4A09A0FC00DE8A02FED91FD91AAE07B
:10032200B0E088D1DF01E0E1F0E09CD12F0109DFEC
:10033200E2E0AE2E02C0A4E423D2AA2029F49398CC
:1003420092989F9A9B981DC09C991BC0F401E60D40
:10035200F71D9F014216530644F09B9902C09F9BD2
:1003620004C09298939A9B989F98930124153505FF
:1003720044F09B9B02C09F9B04C09398929A9B9AC5
:100382009F98E0E0E31510F43A9401C02224D9DEEC
:10039200999839D12496E991EFBFF991E991B991F0
:1003A200A9919991899179916991F99019900990FE
:1003B2001895E0E8E6BDE0E0E6BDE3E0EBBBE0E097
:1003C200EABBE8BBEFEFE7BBE0E4E2BBEFE3E1BB94
:1003D200E0E0E0BFE5E0E3BFE0E0EFBDE4E0EEBD7A
:1003E200EFEFEDBDEEEFECBDE2E8E9BFE0E8E8B922
:1003F200CC24C9D058D1319621F4E0D0C4D0BDD09C
:1004020061D1BED050D1E33EA4E0FA0724F4EA3D24
:10041200ADEFFA070CF4D2D0B6D045D1EB3FA0E055
:10042200FA0714F431971CF4AED0A7D04BD1A8D060
:100432003AD13F01A8D037D14F01BB24E1E0AE2E23
:10044200A0989C9A9B987DDE9A9A9898BCD07894B2
:10045200F894ABDE7894FCCFFFCFE0918800E030D7
:1004620051F4B5D039F0B3D0E093A600B5D0E1E0B5
:10047200E093880031C0E130B9F4A9D0A091A60080
:10048200EA1781F4ADD0AFD061F4989AE091A6005A
:10049200E093A500E2E0E09388009ED0E0E5E093DF
:1004A200A80001C090D018C0E230B1F490D069F039
:1004B20093D0E091A800E03021F4E8E0E093A800B6
:1004C200989AE091A800E15005C08AD08CD021F41E
:1004D2007AD0E0E5E093A800989B02C0989801D0FA
:1004E2000895E091A500E130E9F4E22DE13079F4DC
:1004F200EAEDFDEFE615F7051CF4F3013A973F012B
:10050200EAEDFDEF6E167F060CF43F010AC0E23001
:1005120041F4E1E0F0E0E815F9051CF4F40131974B
:100522004F0126C0E230E1F4E22DE13071F461D0F6
:100532006E167F061CF4F3013A963F015AD0E61577
:10054200F70514F456D03F010AC0E23041F4EAEF55
:10055200F0E08E169F061CF4F40131964F0108C09C
:10056200E33031F42394E3E0E21510F4E1E02E2EBF
:10057200E5E03E2EA098E5DD0895EAE0F0E008957A
:10058200A0E0B0E00895A2E0B0E008950A921A92C5
:10059200FA926A937A938A939A93AA93BA93EA9372
:1005A200FA93EFB7EA930895EA56E081E095E8BB43
:1005B200089580EB94E00197F1F70895E1DFE8E117
:1005C200F1E080D00895E0E0E09388000895E9B377
:1005D200E370A3E0EA270895E4E0E093A70008951A
:1005E200E091A7000895E150E093A700F9DFE03021
:1005F2000895E2EEF4E0E819F90908953A932A938E
:100602001A930A9308953B812A81198108810895DA
:10061200F195E195F040089581E10024111805C09B
:1006220010F40A0E1B1E16940794F795E7958A9507
:10063200B9F708952AD0F0DF0EF4EADF0895002416
:10064200112490E1AA0FBB1F001C111C0E1A1F0AD5
:1006520018F40E0E1F1E01C0A1609A9599F7FD01B4
:10066200D001089512D0EBDF0EF4D2DF0895E894A2
:10067200B7FF04C0B195A195B0406894F7FDC8DFFB
:10068200DEDFFD010EF4C4DF0895E894F7FF02C037
:10069200BFDF6894B7FF06C0B195A195B04000F8DE
:1006A200039400FA0895119602D0FE2F1197E19952
:1006B200FECFFF93FFB7F894AEBBE09AEDB3FFBF56
:1006C200FF91089507D01196EF93EF2F03D0EF918A
:1006D20011970895E19B02C0A895FCCF9FB7F894AB
:1006E200AEBBE09A8DB3E81719F0EDBBE29AE19A3E
:1006F2009FBF0895EE2796988E9A80EC93E001971B
:10070200F1F78E9885E28A95F1F7869B08958BEC36
:100712008A95F1F7869BE1E08CE093E00197F1F78F
:1007220008958E9A85E08A95F1F78E988DE18A95E3
:10073200F1F7889486990894E79585ED8A95F1F703
:100742000895E8948E9A85E08A95F1F770FD8E9867
:1007520083E28A95F1F7869903C070FF03C008957A
:1007620070FF089588EC8A95F1F78E988DE08A954E
:10077200F1F76894089568E0D4DF6A95E9F708957F
:100782007A2F68E0EE27DDDF26F477956A95D9F7B0
:10079200E3950895EE27AA2389F08A2F68E1A881BC
:1007A200BB2798E0FD917F2F7E27779508F4E627F7
:1007B200E795F6959A95B9F78A9599F7219608954E
:00000001FF
