:100000002FC0FECFFDCFFCCFFBCFFACFF9CFF8CF7B
:1000100035C1C9C0F5CFF4CFF3CFF2CFF1CFF0CFD8
:10002000EFCFEECFEDCF820000000B0B0B0BFA826F
:10003000D9CBA36B7BC2FBEB00019B787900280036
:1000400002000200260002000400280004006A01E9
:100050002A000F0079012E0001008B013E000000F4
:10006000F894EE27ECBBF1E0FBBFEBBFE5BFF8E196
:10007000F1BDE1BD8DE0A2E0BB27ED938A95E9F7E4
:1000800080E094E0A0E6ED930197E9F7E0E4F0E08A
:1000900085919591009761F0A591B5910590159086
:1000A000BF01F00105900D920197E1F7FB01F0CF40
:1000B000EFE5EDBFE4E0EEBFC0E6D1E098C1BA9352
:1000C000AA93D6D224FC40C0AD81AA232AF4EC81A5
:1000D000FD81DAD29F0102C02C813D8110E01430F5
:1000E00088F4E3E0E11BF0E0E659FE4FBF01D901DF
:1000F00074D2F3D2DB01EC93D9016FD2E9D29F0124
:100100001F5FEDCFE0916A01E03051F4EAE0E09347
:100110006A01E0916B01E03019F4EAE0E0936B01D1
:10012000AD81AA231AF4EBE0E0936A01E42DE230FA
:1001300011F4ECE007C0E33021F0E03029F4CC20EA
:1001400019F4EEE0E0936A019AD22696089592D2CD
:10015000E42DE030B9F4CC2019F40D2D112701C0A5
:1001600083013ED2D6D2E815F90519F0F40138D250
:10017000E0D239D2CED2EA15FB0519F0F50133D21F
:10018000D8D20CC0E13011F4840108C0E23011F47F
:10019000850104C0E33011F40D2D1127D8018FDF44
:1001A00009911991089522D2E5EBE2BFE091770120
:1001B000EF5FE0937701EF73E09377017AD109C1A4
:1001C0001A9321FC04C080E496E00197F1F710E057
:1001D000143008F051C0689431F8E0917801EF5F75
:1001E000E0937801E0917701E07259F0442049F4FE
:1001F00030FE07C0A0917801E0E0E03011F4E8940F
:1002000031F8E0916A0100D223FC03C0E0B3EB7F38
:10021000E2BBE1E0E41519F4E0B3E77FE2BB31FCB7
:1002200002C0AA9801C0AA9AF6D1AA98E0916B01DF
:10023000EBD131FC02C0A99801C0A99AECD1A998D0
:10024000E0916C01F0E0E758FE4FE081E095EB7F34
:10025000E2BB31FC02C0A89801C0A89ADCD1A898E2
:10026000E0916D01D1D131FC02C0AB9801C0AB9AD5
:10027000D2D1AB981F5FACCF19910895B7D1F6D109
:10028000EEEEF5E8FDBDECBD689421F86BD298DF89
:10029000ACECAED295DFE4E02E2622FE68C0AEEBD9
:1002A000A7D28EDF689425F8E89426F810E019307C
:1002B000B0F4B6D1FF93EF9396D2AF91BF91EC9388
:1002C0007FDFAED1A081AF3F11F0E89425F8A8D12F
:1002D000E081E03011F0689426F81F5FE8CFE894E1
:1002E00024F8EEE6F1E0FA93EA93A8E08BD21E2F11
:1002F000CC2049F4A0916E01A03529F4A0916F01A2
:10030000A53009F4115026FE1150E0917601E11755
:10031000E9F0E1E0DE2E25FE02C0E2E00DC0A09192
:100320006E01A03531F4A0916F01A53011F4E3E026
:10033000DE2E26FC02C0E4E0DE2EE0E0EC1508F440
:10034000CA94CC2011F4689430F810C04EE651E005
:10035000DA01ED91FD91AAE0B0E0A2D1DF01E0E188
:10036000F0E0B6D13F01F3DEE2E0CE2E02C0A4E41D
:100370003FD2CC2029F4C398689427F823F81EC0F4
:1003800024FC1CC0F501E80DF91D9F0162167306DF
:1003900044F023FC02C027FE04C0C398E89423F86D
:1003A00027F89401261537054CF023FE02C027FEDE
:1003B00005C0C39A689423F8E89427F8E0E0E515AF
:1003C00010F45A9401C04424C2DEE89421F855D1B7
:1003D0002696E991EFBFF991E991B991A991999187
:1003E000899179916991F990199009901895E0E3B4
:1003F000E8BBECE0E7BBE0E0E2BBEFEFE1BBE0E055
:10040000E5BBEFE0E4BBE5E0E3BFE0E0E2BFEFBD6A
:10041000E4E0EEBDEFEFEDBDEEEFECBDE0E0E2BD00
:10042000E5BDE4BDE3BDE5BFE5E0E9BFE0E0EAB975
:10043000E0E8E8B9E0E0E0BFE6B9EDB9E6BFE09397
:100440007801D1D066D1319621F4EFD0CCD0C5D08F
:1004500070D1C6D05ED1E33EA4E0FA0724F4EA3DB1
:10046000ADEFFA070CF4E1D0BED053D1EB3FA0E0E2
:10047000FA0714F431971CF4B6D0AFD05AD1B0D0EB
:1004800048D14F01B0D045D15F01DD24E1E0CE2E4F
:10049000E89430F8689424F823F859DE689422F838
:1004A000E89420F8C7D07894F8948ADE7894FCCF4A
:1004B000FFCFE0916001E03051F4C0D039F0BED000
:1004C000E0938901C1D0E1E0E093600133C0E13005
:1004D000C1F4B4D0A0918901EA1789F4B9D0BBD096
:1004E00069F4689420F8E0918901E0938801E2E0E2
:1004F000E0936001A9D0E0E5E0938B0101C09AD0C0
:1005000019C0E230B9F49AD071F09ED0E0918B011D
:10051000E03029F4E8E0E0938B01689420F8E09162
:100520008B01E15005C094D096D021F483D0E0E552
:10053000E0938B0120FE03C0E89420F801D00895D9
:10054000E0918801E130E9F4E42DE13079F4EAED5D
:10055000FDEFE815F9051CF4F4013A974F01EAEDB7
:10056000FDEF8E169F060CF44F010AC0E23041F4F5
:10057000E1E0F0E0EA15FB051CF4F50131975F01BD
:1005800026C0E230E1F4E42DE13071F46AD08E1639
:100590009F061CF4F4013A964F0163D0E815F90563
:1005A00014F45FD04F010AC0E23041F4EAEFF0E00A
:1005B000AE16BF061CF4F50131965F0108C0E330AA
:1005C00031F44394E3E0E41510F4E1E04E2EE5E06D
:1005D0005E2EE89430F8BBDD0895EAE0F0E008957F
:1005E000A0E0B0E00895A2E0B0E008950A921A9267
:1005F000FA926A937A938A939A93AA93BA93EA9314
:10060000FA93EFB7EA930895F0E0E758FE4FE081E0
:10061000E095E2BB089580EB94E00197F1F708952F
:10062000E12FF0E0E259FE4F0895DADFE8E1F1E072
:1006300080D00895E0E0E09360010895E6B3E2958C
:10064000E370A3E0EA270895E4E0E0938A010895C7
:10065000E0918A010895E150E0938A01F9DFE030EA
:100660000895E2EEF4E0EA19FB0908955A934A93DB
:100670003A932A931A930A9308955D814C813B81A2
:100680002A81198108810895F195E195F040089536
:10069000FA9FF02DEB9FF00DEA9FE02DF10D0895EC
:1006A0002AD0F6DF0EF4F0DF08950024112490E143
:1006B000AA0FBB1F001C111C0E1A1F0A18F40E0EE5
:1006C0001F1E01C0A1609A9599F7FD01D001089500
:1006D00012D0EBDF0EF4D8DF0895E894B7FF04C022
:1006E000B195A195B0406894F7FDCEDFDEDFFD0146
:1006F0000EF4CADF0895E894F7FF02C0C5DF6894DE
:10070000B7FF06C0B195A195B04000F8039400FA78
:100710000895119602D0FE2F1197E199FECFFF9315
:10072000FFB7F894AEBBBFBBE09AEDB3FFBFFF913C
:10073000089507D01196EF93EF2F03D0EF91119703
:100740000895E19B02C0A895FCCF9FB7F894AEBB7B
:10075000BFBBE09A8DB3E81719F0EDBBE29AE19ABE
:100760009FBF0895EE27AC98A49A80EC93E0019780
:10077000F1F7A49885E28A95F1F79C9B08958BEC9C
:100780008A95F1F79C9BE1E08CE093E00197F1F70B
:100790000895A49A85E08A95F1F7A4988DE18A9549
:1007A000F1F788949C990894E79585ED8A95F1F77F
:1007B0000895E894A49A85E08A95F1F770FDA498CD
:1007C00083E28A95F1F79C9903C070FF03C00895F6
:1007D00070FF089588EC8A95F1F7A4988DE08A95CA
:1007E000F1F76894089568E0D4DF6A95E9F7089511
:1007F0007A2F68E0EE27DDDF26F477956A95D9F742
:10080000E3950895EE27AA2389F08A2F68E1A8814D
:10081000B98198E0FD917F2F7E27779508F4E62730
:10082000E795F6959A95B9F78A9599F722960895DE
:00000001FF
