:1000000022C0FECFFDCFFCCFFBCFF5C0EEC0F8CFB6
:10001000F7CFF6CFF5CFF4CFF3CFF2CFF1CFF0CFCC
:10002000EFCFEECFEDCFFA82B9ABC36B7BA2FBEB88
:100030000001709B580028000F008C002600010072
:10004000A00036000000F894EE27ECBBE5BFF8E115
:10005000A4B7A77FA4BFF1BDE1BD8DE0A2E0ED9301
:100060008A95E9F780E8A0E6ED938A95E9F7E8E359
:10007000F0E085919591009761F0A591B59105907B
:100080001590BF01F00105900D920197E1F7FB017A
:10009000F0CFE0E0E3BBE0E0E4BBE0E0E5BBEFEDA8
:1000A000EDBFC8E8D0E036C152D32E813F81283E53
:1000B000E3E03E0720F0285E3340222407C0E8EE4C
:1000C000F3E0E21BF30B9F01E1E02E2EA90110E00B
:1000D000143078F4E3E0E11BE8570E2FD90117D272
:1000E0000CD3A02FEC93D90112D2F4D29F011F5F41
:1000F000EFCF4436E0E05E0730F4EAE00BD2EAE00E
:10010000E09389000CC0DA01E4E6F0E0BCD20E2EE8
:10011000E8EEF3E0BED2E02111F0EAE0FBD1989BDB
:100120000AC0EBE0F7D1EBE0E0938900E0938A00AE
:10013000E0938B0005C0E2E0E71511F4EDE0EAD1B1
:100140000DD328960895E0918800E7D1222019F078
:10015000E6B3EE7FE8BB552019F0E6B3EB7FE8BBD2
:10016000E1E0E71519F4E6B3E77FE8BB959ADAD149
:100170009598E0918900D1D1919AD4D19198E0914C
:100180008A00E457E081E095EB7FE8BB909ACAD102
:100190009098E0918B00C1D1949AC4D1949808951D
:1001A000DAD2E72DE03091F48401C1D1EA15FB05E4
:1001B00021F0F501A0E0B0E0B2D2BDD1EC15FD0513
:1001C00021F0F601A2E0B0E0AAD20AC0E13011F4B9
:1001D000850106C0E23021F4F601E851FC4F8F01A1
:1001E0001A930A9361DFC1D20895A9D1EFEBE2BF60
:1001F000F4D0B3D11895A3D12297A9D2EFE8EDBDE1
:10020000E1EDECBDE7D130E03B3018F49CDF3F5F1F
:10021000FBCFECECEA9324D230E03B3018F493DFD0
:100220003F5FFBCFE32D41D23E2E332009F44DC07A
:10023000EEEBA1D130E03B3018F485DF3F5FFBCF20
:100240000AD21E2F30E03B3018F47DDF3F5FFBCF3A
:1002500002D20E2FE12FEF702E2F0295007F129504
:100260001F70E02FE07FAE2FE12FEF70EA2BF0E060
:10027000EE83FF83EE81E078D9F0E22FE095EF5F27
:100280002E2F2F70203029F4EE81FF813197EE83DD
:10029000FF83EE81FF81E095F095F070AAE0B0E079
:1002A00009D26BD1A8EEB3E0AE1BBF0B4D0108C065
:1002B000AE81BF812CD1FED1E851FC4F5ED14F0100
:1002C000F40130964F01989802C0E4E454D1F6014D
:1002D000EA0DFB1DAF018416950610F0552009F4B8
:1002E00003C0939A92985524A5014815590510F01A
:1002F000552009F004C09398929AE1E05E2EE0E068
:10030000E41510F44A9401C077244ADF27D22896D6
:1003100024D11895E0E8E6BDE0E0E6BDE3E0EBBB04
:10032000E0E0EABBE8BBEFEFE7BBE4E4E2BBEFE30E
:10033000E1BB939A9298E0E0E0BFE5E0E3BFE0E044
:10034000E2BFE6BFECBFEFBDE4E0EEBDE3E0EDBD34
:10035000E1EDECBDE0E0E5BDE4BDEBBDEABDE9BD2E
:10036000E8BDEBBFE5BFE2E8E9BFE0E0EDB9E0E8FA
:10037000E8B9E8EEF3E04F01DAD0DF01EAECF8E0AB
:100380008ED10E2ED4D0DF01E2ECF1E082D1E02953
:1003900029F0E0E0F5E0A0E0B0E0C1D1CCD0E53854
:1003A000A3E0FA0720F0B3D0A2E0B0E0B8D1BFD00C
:1003B0005F01C1D06F01989AF3DE0CD1ECECDBD079
:1003C000E4E4D9D006D07894F894BDDE7894FCCFDC
:1003D000FFCFE0E0DBD0DDD00895E0919C00E0307D
:1003E00051F4DBD039F0D9D0E0939D00DBD0E1E0CF
:1003F000E0939C0035C0E130B9F4CFD0A0919D00CE
:10040000EA1781F4D6D0DAD0D4D0309751F4E1E0B5
:10041000BDD060909D00E2E0E0939C00C3D0E0E599
:10042000D3D001C0B6D01CC0E230D1F4B6D079F040
:10043000B9D0E091A000E03021F4E8E0C5D0E1E0DF
:10044000A5D0E091A000E150BFD0EF5F09C0B1D0CE
:10045000B5D03196AED0309719F49BD0E0E5B4D04A
:10046000E0919B00E03019F0E0E090D001D00895D9
:10047000E62DE13001F5E72DE03011F4A8D018C0E9
:10048000E13059F4E2ECF1E0EA15FB0520F4F50166
:1004900031975F0185DE9BD00BC0E23059F4E1E07B
:1004A000F0E0EC15FD0520F4F60131976F0178DEE0
:1004B000E5E04E2E2BC0E23019F5E72DE03011F4C7
:1004C00086D01BC0E13071F4EAECF8E0EC19FD09CC
:1004D000AE16BF0628F4F50131965F01319760DE54
:1004E00076D00BC0E23059F4E4E8F3E0CE16DF0634
:1004F00020F4F60131966F0153DEE5E04E2E06C082
:10050000E33021F4E2E07E2EE5E04E2E0895EAE0AD
:10051000F0E00895E09388000895E457E081E095C5
:10052000E8BB08958CE291E00197F1F70895A0E00F
:10053000B0E0E6D00895A2E0B0E0E2D008950A92DB
:100540001A92FA926A937A938A939A93AA93BA9395
:10055000EA93FA93EFB7EA930895E991EFBFF9911F
:10056000E991B991A9919991899179916991F990BC
:10057000199009900895EA9373C0BF01A22FB0E0CB
:10058000C6DF98D077D0E60FF71F0895E0939B0061
:100590000895E0E0E0939C000895E9B3E370A3E0E0
:1005A000EA270895E4E0F0E0E0939E00F0939F00D6
:1005B0000895E0919E00F0919F0008953197E09397
:1005C0009E00F0939F000895E093A0000895E1E05D
:1005D0007E2E0895EE2796988E9A80EC93E00197F0
:1005E000F1F78E9885E28A95F1F7869B08958BEC5A
:1005F0008A95F1F7869BE3958CE093E00197F1F7FC
:1006000008958E9A85E08A95F1F78E988DE18A9506
:10061000F1F7889486990894E79585ED8A95F1F726
:100620000895E8948E9A85E08A95F1F770FD8E988A
:1006300083E28A95F1F7869903C070FF03C008959D
:1006400070FF089588EC8A95F1F78E988DE08A9571
:10065000F1F76894089568E0D4DF6A95E9F70895A2
:1006600068E07991EE27DDDF26F477956A95D9F772
:10067000E3950895F695E795F695E795F695E79550
:10068000F695E7950895AE17BF07E1E008F4EE2769
:100690000895AE17BF07E1E008F0EE270895EA17C6
:1006A000FB07E1E008F0EE270895EE23E1E009F012
:1006B000EE2708950A2E1B2E81E1AA27BB1B05C039
:1006C00010F4A00DB11DB695A795F795E7958A95FD
:1006D000B9F708950024112490E1AA0FBB1F001C54
:1006E000111C0E1A1F0A18F40E0E1F1E01C0A16065
:1006F0009A9599F7FD01D0010895ECDFFD01089569
:10070000119602D0FE2F1197E199FECFFF93FFB70C
:10071000F894AEBBE09AEDB3FFBFFF91089507D008
:100720001196EF93EF2F03D0EF9111970895E19B6E
:1007300002C0A895FCCF9FB7F894AEBBE09A8DB3EA
:10074000E81719F0EDBBE29AE19A9FBF08955A931A
:100750004A933A932A931A930A9308955D814C81A0
:100760003B812A8119810881089509911991089581
:00000001FF
