:020000002BC013
:10000200FECFFDCFFCCFFBCF23C1C7C0F8CFF7CFC8
:10001200F6CFF5CFF4CFF3CFF2CFF1CFF0CFEFCFD2
:10002200EECFEDCF00000B0B0B0BFA82B9ABC36B1B
:100032007BA2FBEB00019B78790028000200020002
:1000420026000400890028000F0096002C00010001
:10005200A8003C000000F894EE27ECBBE5BFF8E1F5
:10006200A895A4B7A77FA4BFF1BDE1BD8DE0A2E032
:10007200ED938A95E9F780E8A0E6ED938A95E9F792
:10008200EEE3F0E085919591009761F0A591B5912D
:1000920005901590BF01F00105900D920197E1F7CF
:1000A200FB01F0CFE2E8E3BBE0E0E4BBE5BBEFED50
:1000B200EDBFC8E87EC1BA93AA9398D29C993EC07C
:1000C200AD81AA232AF4EC81FD819AD29F0102C05C
:1000D2002C813D8110E0143078F4E3E0E11BE75716
:1000E2000E2FD90147D2BBD2A02FEC93D90142D215
:1000F200B1D29F011F5FEFCFE0918900E03051F450
:10010200EAE0E0938900E0918A00E03019F4EAE045
:10011200E0938A00AD81AA231AF4EBE0E093890010
:10012200E22DE23011F4ECE007C0E33021F0E030E0
:1001320029F4AA2019F4EEE0E09389005CD2269615
:10014200089556D2E22DE030B9F4AA2019F40B2D0D
:10015200112701C0820111D29ED2E615F70519F0CE
:10016200F3010BD2A7D20CD296D2E815F90519F0F9
:10017200F40106D29FD20CC0E13011F4830108C011
:10018200E23011F4840104C0E33011F40B2D112785
:10019200D80191DF099119910895F5D1E5EBE2BFFC
:1001A200D394EFE3DE225FD1F6C01A93999904C08B
:1001B20080E496E00197F1F710E0143008F046C0B1
:1001C200A19AC394D5FE09C0222039F4A09B05C090
:1001D200AC2DE0E0E03009F4A198E0918900E1D192
:1001E2009B9B03C0E6B3EB7FE8BBE1E0E21519F4A9
:1001F200E6B3E77FE8BBA19902C0959801C0959A42
:10020200D5D19598E0918A00CCD1A19902C091985C
:1002120001C0919ACBD19198E0918B00EA56E0818E
:10022200E095EB7FE8BBA19902C0909801C0909A3B
:10023200BDD19098E0918C00B4D1A19902C094985C
:1002420001C0949AB3D194981F5FB7CF19910895C2
:100252009AD1CCD1EEEEF5E8FDBDECBD999A42D231
:10026200A4DFACEC85D2A1DF9A9B02C09A9801C0B0
:100272009A9A9A9B60C0AEEB7BD297DF9D9A9E982A
:1002820010E01930A8F4E12FE357EF936CD2AF914D
:10029200EC938BDFADE8A10FAC91AF3F09F09D98D5
:1002A200ADE8A10FEC91E03009F09E9A1F5FE9CF13
:1002B2009C98EDE8EA93A8E065D21E2FAA2049F4A3
:1002C200A0918D00A03529F4A0918E00A53009F4EB
:1002D20011509E9B1150E0919500E117E1F0E1E091
:1002E200BE2E9D9B02C0E2E00DC0A0918D00A03504
:1002F20031F4A0918E00A53011F4E3E0BE2E9E9958
:1003020002C0E4E0BE2EE0E0EA1508F4AA94AA20B6
:1003120009F4A09A0FC00DE8A02FED91FD91AAE07B
:10032200B0E080D1DF01E0E1F0E094D12F0109DFFC
:10033200E2E0AE2E02C0A4E41BD2AA2029F49398D4
:1003420092989F9A9B981DC09C991BC0F401E60D40
:10035200F71D9F014216530644F09B9902C09F9BD2
:1003620004C09298939A9B989F98930124153505FF
:1003720044F09B9B02C09F9B04C09398929A9B9AC5
:100382009F98E0E0E31510F43A9401C02224D9DEEC
:10039200999831D12496E991EFBFF991E991B991F8
:1003A200A9919991899179916991F99019900990FE
:1003B2001895E0E8E6BDE0E0E6BDE3E0EBBBE0E097
:1003C200EABBE8BBEFEFE7BBE0E4E2BBEFE3E1BB94
:1003D200E0E0E0BFE5E0E3BFE0E0E2BFEFBDE4E084
:1003E200EEBDEFEFEDBDEEEFECBDE0E0EBBFE5BF44
:1003F200E2E8E9BFE0E0EDB9E0E8E8B9CC24C0D03A
:100402004AD1319621F4D7D0BBD0B4D053D1B5D094
:1004120042D1E33EA4E0FA0724F4EA3DADEFFA0745
:100422000CF4C9D0ADD037D1EB3FA0E0FA0714F4F9
:1004320031971CF4A5D09ED03DD19FD02CD13F0145
:100442009FD029D14F01BB24E1E0AE2EA0989C9A07
:100452009B9877DE9A9A9898B3D07894F894A5DE10
:100462007894FCCFFFCFE0918800E03051F4ACD01B
:1004720039F0AAD0E093A600ACD0E1E0E093880086
:1004820031C0E130B9F4A0D0A091A600EA1781F4FE
:10049200A4D0A6D061F4989AE091A600E093A500BA
:1004A200E2E0E093880095D0E0E5E093A80001C087
:1004B20087D018C0E230B1F487D069F08AD0E091D9
:1004C200A800E03021F4E8E0E093A800989AE091D7
:1004D200A800E15005C081D083D021F471D0E0E5BD
:1004E200E093A800989B02C0989801D00895E091EB
:1004F200A500E130B9F4E22DE13049F4EAEDFDEF77
:10050200E615F7051CF4F30131973F010AC0E2300A
:1005120041F4E1E0F0E0E815F9051CF4F40131974B
:100522004F0123C0E230C9F4E22DE13059F4E2EE8A
:10053200F4E0E819F9096E167F061CF4F30131960E
:100542003F010AC0E23041F4EAEFF0E08E169F0666
:100552001CF4F40131964F0108C0E33031F42394C6
:10056200E3E0E21510F4E1E02E2EE5E03E2EA09845
:10057200E8DD0895EAE0F0E00895A0E0B0E0089533
:10058200A2E0B0E008950A921A92FA926A937A93DC
:100592008A939A93AA93BA93EA93FA93EFB7EA9358
:1005A2000895EA56E081E095E8BB089580EB94E077
:1005B2000197F1F70895E1DFE8E1F1E07BD00895DA
:1005C200E0E0E09388000895E9B3E370A3E0EA274E
:1005D2000895E4E0E093A7000895E091A70008954C
:1005E200E150E093A700F9DFE03008953A932A93AF
:1005F2001A930A9308953B812A81198108810895EB
:10060200F195E195F040089581E10024111805C0AB
:1006120010F40A0E1B1E16940794F795E7958A9517
:10062200B9F708952AD0F0DF0EF4EADF0895002426
:10063200112490E1AA0FBB1F001C111C0E1A1F0AE5
:1006420018F40E0E1F1E01C0A1609A9599F7FD01C4
:10065200D001089512D0EBDF0EF4D2DF0895E894B2
:10066200B7FF04C0B195A195B0406894F7FDC8DF0B
:10067200DEDFFD010EF4C4DF0895E894F7FF02C047
:10068200BFDF6894B7FF06C0B195A195B04000F8EE
:10069200039400FA0895119602D0FE2F1197E19962
:1006A200FECFFF93FFB7F894AEBBE09AEDB3FFBF66
:1006B200FF91089507D01196EF93EF2F03D0EF919A
:1006C20011970895E19B02C0A895FCCF9FB7F894BB
:1006D200AEBBE09A8DB3E81719F0EDBBE29AE19A4E
:1006E2009FBF0895EE2796988E9A80EC93E001972B
:1006F200F1F78E9885E28A95F1F7869B08958BEC47
:100702008A95F1F7869BE1E08CE093E00197F1F79F
:1007120008958E9A85E08A95F1F78E988DE18A95F3
:10072200F1F7889486990894E79585ED8A95F1F713
:100732000895E8948E9A85E08A95F1F770FD8E9877
:1007420083E28A95F1F7869903C070FF03C008958A
:1007520070FF089588EC8A95F1F78E988DE08A955E
:10076200F1F76894089568E0D4DF6A95E9F708958F
:100772007A2F68E0EE27DDDF26F477956A95D9F7C0
:10078200E3950895EE27AA2389F08A2F68E1A881CC
:10079200BB2798E0FD917F2F7E27779508F4E62707
:1007A200E795F6959A95B9F78A9599F7219608955E
:00000001FF
