:0C00000027C0FECFFDCFFCCFFBCF17C107
:10000C00C0C0F8CFF7CFF6CFF5CFF4CFF3CFF2CF08
:10001C00F1CFF0CFEFCFEECFEDCF0B0B0B0BFA8276
:10002C00B9ABC36B7BA2FBEB00019B78790028007A
:10003C000400880026000F0095002A000100A8008B
:10004C003A000000F894EE27ECBBE5BFF8E1A4B74A
:10005C00A77FA4BFF1BDE1BD8DE0A2E0ED938A9531
:10006C00E9F780E8A0E6ED938A95E9F7ECE3F0E098
:10007C0085919591009761F0A591B591059015909A
:10008C00BF01F00105900D920197E1F7FB01F0CF54
:10009C00E2E8E3BBE0E0E4BBE0E0E5BBEFEDEDBFA5
:1000AC00C8E8D0E06CC177D39C9940C0AC81BD81CD
:1000BC0010972CF4EC81FD81F6D29F0102C02C81AB
:1000CC003D8110E0143078F4E3E0E11BE8570E2F8B
:1000DC00D90135D219D3A02FEC93D90130D20FD33B
:1000EC009F011F5FEFCFE0918800E03051F4EAE010
:1000FC00E0938800E0918900E03019F4EAE0E093A5
:10010C008900AC81BD8110971CF4EBE0E093880072
:10011C00E22DE23011F4ECE007C0E33021F0E030E6
:10012C0029F4AA2019F4EEE0E093880039D326963E
:10013C00089533D3E22DE03099F4AA2019F40B2D55
:10014C00112701C08201FED1E615F70511F0F3016C
:10015C00FDD100D2E815F90511F0F401FFD10CC066
:10016C00E13011F4830108C0E23011F4840104C0C1
:10017C00E33011F40B2D11271A930A9394DF15D346
:10018C000895F0D1E5EBE2BFD394EFE3DE2250D13A
:10019C00F7D118951A93999904C080E496E00197C9
:1001AC00F1F710E0143008F040C0A198C394D5FECC
:1001BC0009C0222039F4A09B05C0AC2DE0E0E03052
:1001CC0009F4A19AE0918800E9D1E1E0E21519F473
:1001DC00E6B3E860E8BBA19902C0959801C0959A76
:1001EC00E1D1959AE0918900D9D1A19902C0919859
:1001FC0001C0919AD7D1919AE0918A00EB56E08197
:10020C00E460E8BBA19902C0909801C0909ACAD151
:10021C00909AE0918B00C2D1A19902C0949801C030
:10022C00949AC0D1949A1F5FBDCF199108959AD119
:10023C00B2D2EEEEF5E8FDBDECBD999ACED1AADFB7
:10024C00ECECEA9310D2A6DF9A9B02C09A9801C0FC
:10025C009A9A9A9B61C0EEEBEA9305D29BDF9D9A2A
:10026C009E9810E01930A8F4E12FE457EF93F6D1E3
:10027C00AF91EC938FDFACE8A10FAC91AF3F09F0DD
:10028C009D98ACE8A10FEC91E03009F09E9A1F5FAD
:10029C00E9CF9C98ECE8EA93E8E0EA93EED11E2FC4
:1002AC00AA2049F4A0918C00A03529F4E0918D008E
:1002BC00E53009F411509E9B1150E0919400E11728
:1002CC00E1F0E1E0BE2E9D9B02C0E2E00DC0A091EA
:1002DC008C00A03531F4E0918D00E53011F4E3E0B1
:1002EC00BE2E9E9902C0E4E0BE2EE0E0EA1508F4B2
:1002FC00AA94AA2009F4A09A0EC00CE8A02F20D230
:10030C00AAE0B0E0E4D1DF01E0E1F0E0F8D12F01A8
:10031C0010DFE2E0AE2E03C0E4E4EA93A4D1AA20FD
:10032C0029F4939892989F9A9B981DC09C991BC0F6
:10033C00F401E60DF71D9F014216530644F09B99FC
:10034C0002C09F9B04C09298939A9B989F9893018C
:10035C002415350544F09B9B02C09F9B04C09398C9
:10036C00929A9B9A9F98E0E0E31510F43A9401C09E
:10037C002224DFDE999814D2249602D11895E0E855
:10038C00E6BDE0E0E6BDE3E0EBBBE0E0EABBE8BBEA
:10039C00EFEFE7BBE3E7E2BBEFE3E1BBE0E0E0BF9D
:1003AC00E5E0E3BFE0E0E2BFEFBDE4E0EEBDEFEF80
:1003BC00EDBDEEEFECBDE0E0EBBFE5BFE2E8E9BF81
:1003CC00E0E0EDB9E0E8E8B9CC24C4D0319629F4EA
:1003DC00E8E1F1E0BBD0B3D0C1D0B4D0E33EA4E0AF
:1003EC00FA072CF4AFD0EA3DADEFFA071CF4E8E1C4
:1003FC00F1E0ACD0AFD0EB3FA0E0FA071CF4AAD0F0
:10040C00319714F49CD0AAD09DD03F01A3D04F01BA
:10041C00BB24E1E0AE2EA0989C9A9B988ADE9A9A17
:10042C009898C5D07894F894B5DE7894FCCFFFCF2B
:10043C00E091A500E03051F4BED039F0BCD0E0938F
:10044C00A600BED0E1E0E093A50031C0E130B9F4E4
:10045C00B2D0A091A600EA1781F4B6D0B8D061F45E
:10046C00989AE091A600E093A400E2E0E093A50046
:10047C00A7D0E0E5E093A80001C099D018C0E23005
:10048C00B1F499D069F09CD0E091A800E03021F44F
:10049C00E8E0E093A800989AE091A800E15005C02C
:1004AC0093D095D021F483D0E0E5E093A800989BFD
:1004BC0002C0989801D00895E091A400E130B9F4FD
:1004CC00E22DE13049F4EAEDFDEFE615F7051CF4F9
:1004DC0036D06E1A7F0A0AC0E23041F4E1E0F0E057
:1004EC00E815F9051CF4F40131974F0123C0E230F3
:1004FC00C9F4E22DE13059F4E2EEF4E0E819F9091F
:10050C006E167F061CF4F3013A963F010AC0E230E6
:10051C0041F4EAEFF0E08E169F061CF4F4013196DC
:10052C004F0108C0E33031F42394E3E0E21510F4FA
:10053C00E1E02E2EE5E03E2EA098FBDD0895EAE0EA
:10054C00F0E00895A4E0B0E0FFD00895A4E0B0E09E
:10055C000AD10895A6E0B0E0F7D00895A6E0B0E087
:10056C0002D108950A921A92FA926A937A938A9314
:10057C009A93AA93BA93EA93FA93EFB7EA930895EE
:10058C00E991EFBFF991E991B991A991999189916B
:10059C0079916991F990199009900895EB56E08141
:1005AC00E8BB089580EB94E00197F1F70895E0E043
:1005BC00E093A5000895E9B3E370A3E0EA2708955A
:1005CC00E4E0E093A7000895E091A7000895E150BE
:1005DC00E093A700F9DFE0300895EE2796988E9A05
:1005EC0080EC93E00197F1F78E9885E28A95F1F70C
:1005FC00869B08958BEC8A95F1F7869BE3958CE0AE
:10060C0093E00197F1F708958E9A85E08A95F1F7BA
:10061C008E988DE18A95F1F7889486990894E795E0
:10062C0085ED8A95F1F70895E8948E9A85E08A9580
:10063C00F1F770FD8E9883E28A95F1F7869903C0E5
:10064C0070FF03C0089570FF089588EC8A95F1F748
:10065C008E988DE08A95F1F76894089568E0D4DF60
:10066C006A95E9F7089568E07991EE27DDDF26F4C5
:10067C0077956A95D9F7E3950895EE2788818823B5
:10068C0081F068E1A981BB2798E0FD917F2F7E273F
:10069C00779508F4E627E795F6959A95B9F78A9534
:1006AC0099F722960895F195E195F04008950A2E58
:1006BC001B2E81E1AA27BB1B05C010F4A00DB11D98
:1006CC00B695A795F795E7958A95B9F708952AD029
:1006DC00EEDF0EF4E8DF08950024112490E1AA0F58
:1006EC00BB1F001C111C0E1A1F0A18F40E0E1F1E25
:1006FC0001C0A1609A9599F7FD01D001089512D01F
:10070C00EBDF0EF4D0DF0895E894B7FF04C0A0959A
:10071C00B09511966894F7FDC6DFDEDFFD010EF48F
:10072C00C2DF0895E894F7FF02C0BDDF6894B7FFFD
:10073C0006C0A095B095119600F8039400FA0895A0
:10074C00ED91FC91AA950895119602D0FE2F119768
:10075C00E199FECFFF93FFB7F894AEBBE09AEDB3EF
:10076C00FFBFFF91089507D01196EF93EF2F03D0A1
:10077C00EF9111970895E19B02C0A895FCCF9FB70C
:10078C00F894AEBBE09A8DB3E81719F0EDBBE29A82
:10079C00E19A9FBF08953A932A931A930A93089566
:1007AC003B812A8119810881089509911991089535
:00000001FF
