:0A0000002CC0FECFFDCFFCCFFBCFDC
:10000A0022C1C8C0F8CFF7CFF6CFF5CFF4CFF3CFE0
:10001A00F2CFF1CFF0CFEFCFEECFEDCF000000005F
:10002A000B0B0B0BFA82B9ABC36B7BA2FBEB000188
:10003A009B78790028000400020026000400890049
:10004A002A000F0097002E000100A9003E000000C0
:10005A00F894EE27ECBBE5BFF8E1A895A4B7A77F13
:10006A00A4BFF1BDE1BD8DE0A2E0ED938A95E9F769
:10007A0080E8A0E6ED938A95E9F7E0E4F0E085915F
:10008A009591009761F0A591B59105901590BF01E2
:10009A00F00105900D920197E1F7FB01F0CFE0E244
:1000AA00E3BBE0E0E4BBE5BBEFEDEDBFC8E87EC132
:1000BA00BA93AA939BD29A993EC0AD81AA232AF4F5
:1000CA00EC81FD819DD29F0102C02C813D8110E00F
:1000DA00143078F4E3E0E11BE7570E2FD9014BD235
:1000EA00BED2A02FEC93D90146D2B4D29F011F5F92
:1000FA00EFCFE0918900E03051F4EAE0E093890023
:10010A00E0918A00E03019F4EAE0E0938A00AD81D8
:10011A00AA231AF4EBE0E0938900E52DE23011F40A
:10012A00ECE007C0E33021F0E03029F4DD2019F4D7
:10013A00EEE0E09389005FD22696089559D2E52D24
:10014A00E030B9F4DD2019F4042D112701C0830130
:10015A0015D2A1D2E815F90519F0F4010FD2AAD2E5
:10016A0010D299D2EA15FB0519F0F5010AD2A2D2EA
:10017A000CC0E13011F4840108C0E23011F48501A9
:10018A0004C0E33011F4042D1127D80191DF09913D
:10019A0019910895F9D1E5EBE2BFC394EFE3CE22BA
:1001AA0062D1F6C01A9310E0143008F04AC09F9842
:1001BA00E0919600EF5FE0939600C5FE0AC05520D5
:1001CA0041F49E9B06C0A0919600E0E0E03009F45D
:1001DA009F9AE0918900E6D1332019F4E6B3E460EE
:1001EA00E8BBE1E0E51519F4E6B3E860E8BB9F99DE
:1001FA0002C0959801C0959AD9D1959AE0918A0042
:10020A00D1D19F9902C0919801C0919ACFD1919A68
:10021A00E0918B00E956E081E460E8BB9F9902C057
:10022A00909801C0909AC2D1909AE0918C00BAD16C
:10023A009F9902C0949801C0949AB8D1949A1F5F6A
:10024A00B3CF19910895A0D1D1D1EEEEF5E8FDBD55
:10025A00ECBD48D2A7DFACEC8BD2A4DF999B02C0DD
:10026A00999801C0999A999B60C0AEEB81D29ADFA6
:10027A009B9A9C9810E01930A8F4E12FE357EF936A
:10028A0072D2AF91EC938EDFADE8A10FAC91AF3F84
:10029A0009F09B98ADE8A10FEC91E03009F09C9A27
:1002AA001F5FE9CF9A98EDE8EA93A8E06BD21E2F78
:1002BA00DD2049F4A0918D00A03529F4A0918E008B
:1002CA00A53009F411509C9B1150E0919500E1175B
:1002DA00E1F0E1E04E2E9B9B02C0E2E00DC0A0914E
:1002EA008D00A03531F4A0918E00A53011F4E3E021
:1002FA004E2E9C9902C0E4E04E2EE0E0ED1508F483
:10030A00DA94DD2009F49E9A0FC00DE8A02FED9132
:10031A00FD91AAE0B0E086D1DF01E0E1F0E09AD1F8
:10032A003F010CDFE2E0DE2E02C0A4E421D2DD2090
:10033A0031F4939892989D9AE2E03E2E20C09A99C1
:10034A001EC0E2E0E31529F492989398E3E03E2E6A
:10035A009D989401621673063CF0E2E03E1620F482
:10036A009298939A3E2E9D989401261537053CF053
:10037A00332029F49398929AE1E03E2E9D98E0E08A
:10038A00E21510F42A9401C05524D8DE34D12496FB
:10039A00E991EFBFF991E991B991A991999189915F
:1003AA0079916991F990199009901895E0E8E6BD5C
:1003BA00E0E0E6BDE3E0EBBBE0E0EABBE8BBEFEF81
:1003CA00E7BBE3E7E2BBEFE3E1BBE0E0E0BFE5E088
:1003DA00E3BFE0E0E2BFEFBDE4E0EEBDEFEFEDBD6D
:1003EA00EEEFECBDE0E0EBBFE5BFE2E8E9BFE0E03D
:1003FA00EDB9E0E8E8B9E0E0E0939600C2D04BD16D
:10040A00319621F4D8D0BDD0B6D054D1B7D043D18B
:10041A00E33EA4E0FA0724F4EA3DADEFFA070CF450
:10042A00CAD0AFD038D1EB3FA0E0FA0714F4319725
:10043A001CF4A7D0A0D03ED1A1D02DD14F01A1D07C
:10044A002AD15F014424E1E0DE2E9E989A9AE3E0E5
:10045A003E2E74DE999A9898B3D07894F894A2DED6
:10046A007894FCCFFFCFE0918800E03051F4ACD013
:10047A0039F0AAD0E093A700ACD0E1E0E09388007D
:10048A0031C0E130B9F4A0D0A091A700EA1781F4F5
:10049A00A4D0A6D061F4989AE091A700E093A600B0
:1004AA00E2E0E093880095D0E0E5E093A90001C07E
:1004BA0087D018C0E230B1F487D069F08AD0E091D1
:1004CA00A900E03021F4E8E0E093A900989AE091CD
:1004DA00A900E15005C081D083D021F471D0E0E5B4
:1004EA00E093A900989B02C0989801D00895E091E2
:1004FA00A600E130B9F4E52DE13049F4EAEDFDEF6B
:10050A00E815F9051CF4F40131974F010AC0E230ED
:10051A0041F4E1E0F0E0EA15FB051CF4F50131973E
:10052A005F0124C0E230C9F4E52DE13059F4E2EE6E
:10053A00F4E0EA19FB098E169F061CF4F4013196C1
:10054A004F010AC0E23041F4EAEFF0E0AE16BF060E
:10055A001CF4F50131965F0109C0E33039F4332404
:10056A005394E3E0E51510F4E1E05E2EE5E02E2E6B
:10057A009E98E4DD0895EAE0F0E00895A0E0B0E096
:10058A000895A2E0B0E008950A921A92FA926A9344
:10059A007A938A939A93AA93BA93EA93FA93EFB7C0
:1005AA00EA930895E956E081E8BB08958CE291E068
:1005BA000197F1F70895E2DFE8E1F1E07BD00895D1
:1005CA00E0E0E09388000895E9B3E370A3E0EA2746
:1005DA000895E4E0E093A8000895E091A800089542
:1005EA00E150E093A800F9DFE03008953A932A93A6
:1005FA001A930A9308953B812A81198108810895E3
:10060A00F195E195F040089581E10024111805C0A3
:10061A0010F40A0E1B1E16940794F795E7958A950F
:10062A00B9F708952AD0F0DF0EF4EADF089500241E
:10063A00112490E1AA0FBB1F001C111C0E1A1F0ADD
:10064A0018F40E0E1F1E01C0A1609A9599F7FD01BC
:10065A00D001089512D0EBDF0EF4D2DF0895E894AA
:10066A00B7FF04C0B195A195B0406894F7FDC8DF03
:10067A00DEDFFD010EF4C4DF0895E894F7FF02C03F
:10068A00BFDF6894B7FF06C0B195A195B04000F8E6
:10069A00039400FA0895119602D0FE2F1197E1995A
:1006AA00FECFFF93FFB7F894AEBBE09AEDB3FFBF5E
:1006BA00FF91089507D01196EF93EF2F03D0EF9192
:1006CA0011970895E19B02C0A895FCCF9FB7F894B3
:1006DA00AEBBE09A8DB3E81719F0EDBBE29AE19A46
:1006EA009FBF0895EE2796988E9A80EC93E0019723
:1006FA00F1F78E9885E28A95F1F7869B08958BEC3F
:10070A008A95F1F7869BE1E08CE093E00197F1F797
:10071A0008958E9A85E08A95F1F78E988DE18A95EB
:10072A00F1F7889486990894E79585ED8A95F1F70B
:10073A000895E8948E9A85E08A95F1F770FD8E986F
:10074A0083E28A95F1F7869903C070FF03C0089582
:10075A0070FF089588EC8A95F1F78E988DE08A9556
:10076A00F1F76894089568E0D4DF6A95E9F7089587
:10077A007A2F68E0EE27DDDF26F477956A95D9F7B8
:10078A00E3950895EE27AA2389F08A2F68E1A881C4
:10079A00BB2798E0FD917F2F7E27779508F4E627FF
:1007AA00E795F6959A95B9F78A9599F72196089556
:00000001FF
