:020000002BC013
:10000200FECFFDCFFCCFFBCFFACFF9CFF8CF30C177
:10001200C3C0F5CFF4CFF3CFF2CFF1CFF0CFEFCF14
:10002200EECFEDCF0B0B0B0BFA82D9CBA36B7BC2BE
:10003200FBEB00019B78790028008200020002009D
:100042003C000400600126000F006F012A0001003D
:1000520082013A000000F894EE27ECBBF1E0FBBF0E
:10006200EBBFE5BFF8E1F1BDE1BD8DE0A2E0BB274A
:10007200ED938A95E9F780E094E0A0E6ED9301978D
:10008200E9F7EEE3F0E085919591009761F0A59193
:10009200B59105901590BF01F00105900D92019761
:1000A200E1F7FB01F0CFEFE5EDBFE4E0EEBFC0E624
:1000B200D1E093C1BED324FC44C0AC81BD81109772
:1000C2002CF4EC81FD8141D39F0102C02C813D8142
:1000D20010E0143098F4E3E0E11B6FD2E05AFE4FD7
:1000E200BF01D901EAE0F0E059D3DB01EC93D90179
:1000F200EAE0F0E04ED39F011F5FEBCFE091600199
:10010200E03051F4EAE0E0936001E0916101E03017
:1001120019F4EAE0E0936101AC81BD8110971CF40F
:10012200EBE0E0936001E42DE23011F4ECE007C073
:10013200E33021F0E03029F4CC2019F4EEE0E09332
:1001420060017ED32696089576D3E42DE03099F4AB
:10015200CC2019F40D2D112701C0830130D2E815EE
:10016200F90511F0F4012FD232D2EA15FB0511F094
:10017200F50131D20CC0E13011F4840108C0E23043
:1001820011F4850104C0E33011F40D2D11271A93E7
:100192000A9390DF5AD3089522D2E5EBE2BFE091B1
:1001A2006D01EF5FE0936D01EF73E0936D0179D123
:1001B20024D218951A9321FC04C080E496E001979A
:1001C200F1F710E0143008F051C0689431F8E09172
:1001D2006E01EF5FE0936E01E0916D01E07259F004
:1001E200442049F430FE07C0A0916E01E0E0E03007
:1001F20011F4E89431F8E09160010DD223FC03C0C0
:10020200E0B3EB7FE2BBE1E0E41519F4E0B3E77F92
:10021200E2BB31FC02C0AA9801C0AA9A03D2AA98F2
:10022200E0916101F8D131FC02C0A99801C0A99AFC
:10023200F9D1A998E0916201C0D1E159FE4FE08164
:10024200E095EB7FE2BB31FC02C0A89801C0A89AFE
:10025200E9D1A898E0916301DED131FC02C0AB98EC
:1002620001C0AB9ADFD1AB981F5FACCF1991089553
:10027200B6D1DDD222FE03C0EBE7F1EE02C0E5EA21
:10028200F9E3FDBDECBD689421F8F9D193DFECEC04
:10029200EA933BD28FDFE4E02E2622FE69C0EEEB2A
:1002A200EA9333D287DF689425F8E89426F810E0C1
:1002B2001930B0F4BCD1FF93EF9322D2AF91BF912A
:1002C200EC9378DFB4D1E081EF3F11F0E89425F8A8
:1002D200AED1E081E03011F0689426F81F5FE8CFDC
:1002E200E89424F8E4E6F1E0FA93EA93E8E0EA938A
:1002F20016D21E2FCC2049F4A0916401A03529F416
:10030200E0916501E53009F4115026FE1150E091AB
:100312006C01E117E9F0E1E0DE2E25FE02C0E2E029
:100322000DC0A0916401A03531F4E0916501E53082
:1003320011F4E3E0DE2E26FC02C0E4E0DE2EE0E073
:10034200EC1508F4CA94CC2011F4689430F80FC06C
:1003520044E651E0DA013ED2AAE0B0E002D2DF0187
:10036200E0E1F0E016D23F01EFDEE2E0CE2E03C084
:10037200E4E4EA93CAD1CC2029F4C398689427F81C
:1003820023F81EC024FC1CC0F501E80DF91D9F01D5
:100392006216730644F023FC02C027FE04C0C39811
:1003A200E89423F827F89401261537054CF023FE2C
:1003B20002C027FE05C0C39A689423F8E89427F880
:1003C200E0E0E51510F45A9401C04424BDDEE8943F
:1003D20021F834D2269611D11895E0E3E8BBE8E380
:1003E200E7BBE0E0E2BBEFEFE1BBE0E0E5BBEFE063
:1003F200E4BBC398E5E0E3BFE0E0E2BFEFBDE5E0C8
:10040200EEBDEFEFEDBDEEEFECBDE0E0E2BDE5BD30
:10041200E4BDE3BDE5BFE5E0E9BFE0E0EAB9E0E85D
:10042200E8B9E0E0E0BFE6B9EDB9E6BFE0936E01FE
:10043200CED0319631F4E6EEF0E0C5D0E4E1F0E062
:10044200CAD0BDD0E33EA4E0FA072CF4B8D0EA3D0E
:10045200ADEFFA071CF4E6EEF0E0B5D0B8D0EB3F12
:10046200A0E0FA071CF4B3D031971CF4E4E1F0E009
:10047200B2D0A5D04F01ABD05F01DD24E1E0CE2E9A
:10048200E89430F8689424F823F85EDE689422F841
:10049200E89420F8D1D07894F8948CDE7894FCCF4C
:1004A200FFCFE0917F01E03051F4CAD039F0C8D0DB
:1004B200E0938001CBD0E1E0E0937F0133C0E130F3
:1004C200C1F4BED0A0918001EA1789F4C3D0C5D08F
:1004D20069F4689420F8E0918001E0937E01E2E003
:1004E200E0937F01B3D0E0E5E093820101C0A4D0A4
:1004F20019C0E230B9F4A4D071F0A8D0E091820121
:10050200E03029F4E8E0E0938201689420F8E09179
:100512008201E15005C09ED0A0D021F48DD0E0E54B
:10052200E093820120FE03C0E89420F801D00895F0
:10053200E0917E01E130C1F4E42DE13051F4EAEDC5
:10054200FDEFE815F90524F4E5E0F0E08E1A9F0AC4
:100552000AC0E23041F4E1E0F0E0EA15FB051CF4E8
:10056200F50131975F0123C0E230C9F4E42DE13097
:1005720059F4E2EEF4E0EA19FB098E169F061CF428
:10058200F40135964F010AC0E23041F4EAEFF0E09F
:10059200AE16BF061CF4F50131965F0108C0E330C8
:1005A20031F44394E3E0E41510F4E1E04E2EE5E08B
:1005B2005E2EE89430F8C8DD0895F0E00895A4E0D6
:1005C200B0E00CD10895A4E0B0E018D10895A6E0FF
:1005D200B0E004D10895A6E0B0E010D108950A92E7
:1005E2001A92FA926A937A938A939A93AA93BA93F3
:1005F200EA93FA93EFB7EA930895E991EFBFF9917D
:10060200E991B991A9919991899179916991F99019
:10061200199009900895D1DFE159FE4FE081E095EC
:10062200E2BB089580EB94E00197F1F70895E12F82
:10063200C4DFEC59FE4F0895E0E0E0937F01089596
:10064200E6B3E295E370A3E0EA270895E4E0E093DD
:1006520081010895E09181010895E150E0938101C3
:10066200F9DFE0300895E991F991309639F080EDA3
:1006720097E00197F1F7A8953197C9F70895EE270A
:10068200AC98A49A80EC93E00197F1F7A49885E2E4
:100692008A95F1F79C9B08958BEC8A95F1F79C9BC8
:1006A200E3958CE093E00197F1F70895A49A85E031
:1006B2008A95F1F7A4988DE18A95F1F788949C992F
:1006C2000894E79585ED8A95F1F70895E894A49A40
:1006D20085E08A95F1F770FDA49883E28A95F1F797
:1006E2009C9903C070FF03C0089570FF089588ECC1
:1006F2008A95F1F7A4988DE08A95F1F768940895A8
:1007020068E0D4DF6A95E9F7089568E07991EE2709
:10071200DDDF26F477956A95D9F7E3950895EE27FC
:100722008881882381F068E1A981BA8198E0FD91EE
:100732007F2F7E27779508F4E627E795F6959A9519
:10074200B9F78A9599F723960895F195E195F040C6
:100752000895FA9FF02DEB9FF00DEA9FE02DF10D29
:1007620008952AD0F6DF0EF4F0DF08950024112454
:1007720090E1AA0FBB1F001C111C0E1A1F0A18F4CD
:100782000E0E1F1E01C0A1609A9599F7FD01D001BE
:10079200089512D0EBDF0EF4D8DF0895E894B7FF86
:1007A20004C0A095B09511966894F7FDCEDFDEDF08
:1007B200FD010EF4CADF0895E894F7FF02C0C5DF19
:1007C2006894B7FF06C0A095B095119600F80394FF
:1007D20000FA0895ED91FC9111970895119602D0B7
:1007E200FE2F1197E199FECFFF93FFB7F894AEBBAE
:1007F200BFBBE09AEDB3FFBFFF91089507D01196FA
:10080200EF93EF2F03D0EF9111970895E19B02C070
:10081200A895FCCF9FB7F894AEBBBFBBE09A8DB34F
:10082200E81719F0EDBBE29AE19A9FBF08955A9337
:100832004A933A932A931A930A9308955D814C81BD
:100842003B812A811981088108950991199108959E
:00000001FF
