:0C0000002FC0FECFFDCFFCCFFBCFFACF0E
:10000C00F9CFF8CF48C1DEC0F5CFF4CFF3CFF2CFA4
:10001C00F1CFF0CFEFCFEECFEDCF820000000B0B86
:10002C000B0BFA82D9CBA36B7BC2FBEB00019B7849
:10003C007939280002000200260002000400280082
:10004C0004006A012A0010007C012E0001008F01BF
:10005C003E000000F894EE27ECBBF1E0FBBFEBBFD9
:10006C00E5BFF8E1F1BDE1BD8DE0A2E0BB27ED936A
:10007C008A95E9F780E094E0A0E6ED930197E9F723
:10008C00E0E4F0E085919591009761F0A591B59130
:10009C0005901590BF01F00105900D920197E1F7C5
:1000AC00FB01F0CFEFE5EDBFE4E0EEBFC0E6D1E041
:1000BC00D0C1BA93AA933CD324FC44C0AD81AA23EB
:1000CC002AF4EC81FD8140D39F0102C02C813D813B
:1000DC0010E0143088F4E3E0E11BF0E0E659FE4F49
:1000EC00BF01D901D4D259D3DB01EC93D901CFD2C2
:1000FC004FD39F011F5FEDCFE0916A01E03051F4C7
:10010C00EAE0E0936A01E0916B01E03019F4EAE077
:10011C00E0936B01AD81AA231AF4EBE0E0936A0142
:10012C00E42DE23011F4ECE00BC0E33011F4EFE01D
:10013C0007C0E43021F0E03029F4ACD219F4EEE041
:10014C00E0936A01FCD226960895F4D2E42DE030B7
:10015C0011F5A0D221F400917801112701C084017E
:10016C009DD237D3EA15FB0519F0F50197D241D38F
:10017C0098D22FD3EC15FD0519F0F60192D239D394
:10018C0093D22BD3A0916E01EA1721F0E0916E016E
:10019C008BD237D312C0E13011F485010EC0E2309E
:1001AC0011F486010AC0E33019F400916E0104C009
:1001BC00E43019F4009178011127D8017ADF099104
:1001CC001991089574D2E5EBE2BFE0917A01EF5FEB
:1001DC00E0937A01EF73E0937A01ACD12CC11A93BE
:1001EC0021FC04C080E496E00197F1F710E0143094
:1001FC0008F04FC0E89431F8E0917B01EF5FE09399
:10020C007B01E0917A01E07259F0442049F430FE10
:10021C0007C0A0917B01E0E0E03011F4689431F864
:10022C00E0916A0152D223FC03C0E0B3E460E2BB6C
:10023C00E1E0E41519F4E0B3E860E2BB31FC02C084
:10024C00AA9801C0AA9A47D2AA9AE0916B013DD212
:10025C0031FC02C0A99801C0A99A3DD2A99AE0919B
:10026C006C0133D2E3E0E41509F0929A31FC02C040
:10027C00A89801C0A89A2FD2A89AE0916D0125D216
:10028C0031FC02C0AB9801C0AB9A25D2AB9A1F5F70
:10029C00AECF199108950BD249D2EEEEF5E8FDBD23
:1002AC00ECBD689421F8BED29ADFACEC01D397DF99
:1002BC00E4E02E2622FE71C0AEEBFAD290DF6894F9
:1002CC0025F8E89426F810E01930B0F409D2FF9321
:1002DC00EF93E9D2AF91BF91EC9381DF01D2A08172
:1002EC00AF3F11F0E89425F8FBD1E081E03011F03C
:1002FC00689426F81F5FE8CFE89424F8EFE6F1E065
:10030C00FA93EA93A8E0DED21E2FC4D149F4A0914F
:10031C006F01A03529F4A0917001A53009F411509A
:10032C0026FE1150E0917701E11729F1E1E0E0930D
:10033C00780125FE02C0E2E00EC0A0916F01A0354D
:10034C0039F4A0917001A53019F4E3E0E093780141
:10035C0026FC03C0E4E0E0937801A0917901A13080
:10036C0028F0E0917901E150E093790193D111F4F7
:10037C00689430F811C04FE651E0DA01ED91FD912F
:10038C00AAE0B0E0EDD1DF01E0E1F0E001D24F01F5
:10039C00DCDEE2E0E093790102C0A4E489D27AD1F8
:1003AC0061F4C29B03C0E2E0E61509F401C09DD1E3
:1003BC00C398689427F823F823C024FC21C0F601C5
:1003CC00EA0DFB1D9F018216930654F023FC02C01C
:1003DC0027FE06C0C398E89423F887D1E89427F841
:1003EC0095012815390564F023FE02C027FE08C0CC
:1003FC00C39A689423F8E89427F8E1E06E2E7724EA
:10040C00E62DE23029F4772011F4C298662404C05A
:10041C00E13011F4C29A6624E0E0E51510F45A9428
:10042C0001C04424E0E0E71508F47A948EDEE894E9
:10043C0021F883D12696E991EFBFF991E991B99111
:10044C00A9919991899179916991F9901990099053
:10045C001895E0E3E8BBECE3E7BBE0E0E2BBEFEFD1
:10046C00E1BBEFE0E5BBE4BB66247724E5E0E3BF4A
:10047C00E0E0E2BFEFBDE4E0EEBDEFEFEDBDEEEF8F
:10048C00ECBDE0E0E2BDE5BDE4BDE3BDE5BFE5E00C
:10049C00E9BFE0E0EAB9E0E8E8B9E0E0E0BFE6B9DE
:1004AC00EDB9E6BFE0937B01FCD093D1319621F4FA
:1004BC0021D1F7D0ECD09DD1F1D08BD1E33EA4E08B
:1004CC00FA0724F4EA3DADEFFA070CF413D1E9D0A6
:1004DC0080D1EB3FA0E0FA0714F431971CF4E1D083
:1004EC00D6D087D1E1D079D1EB3F18F0DDD0ECE359
:1004FC0088D1DAD072D1E0936E01D0D06AD15F018D
:10050C00D0D067D16F01E0E0E0937801E1E0E093B7
:10051C007901E89430F8689424F823F816DE68948E
:10052C0022F8E89420F8EBD07894F89458DE78947C
:10053C00FCCFFFCFE0916001E03051F4E4D039F012
:10054C00E2D0E0938D01E5D0E1E0E093600133C0AF
:10055C00E130C1F4D8D0A0918D01EA1789F4DDD037
:10056C00DFD069F4689420F8E0918D01E0938C0160
:10057C00E2E0E0936001CDD0E0E5E0938F0101C0B3
:10058C00BED019C0E230B9F4BED071F0C2D0E09147
:10059C008F01E03029F4E8E0E0938F01689420F8B3
:1005AC00E0918F01E15005C0B8D0BAD021F4A7D0AA
:1005BC00E0E5E0938F0120FE03C0E89420F801D021
:1005CC000895E0918C01E13041F5E42DE03019F40F
:1005DC00E1E04E2E21C0E13049F4EAEDFDEFEA15E1
:1005EC00FB051CF4F50131975F0116C0E23049F4AC
:1005FC00E1E0F0E0EC15FD051CF4F60131976F011C
:10060C000BC0E33049F4A0916E01A13028F0E091C9
:10061C006E01E150E0936E0134C0E23051F5E42DEF
:10062C00E03019F4E1E04E2E23C0E13059F4E2EE53
:10063C00F4E0EC19FD09AE16BF061CF4F501319679
:10064C005F0116C0E23049F4EAEFF0E0CE16DF06A7
:10065C001CF4F60131966F010BC0E33049F4A09104
:10066C006E01AA3F28F4E0916E01EF5FE0936E01FA
:10067C0008C0E33031F44394E4E0E41510F4E1E015
:10068C004E2EE5E05E2EE89430F85FDD0895EAE04A
:10069C00F0E00895E0917901E0300895A0E0B0E039
:1006AC000895A2E0B0E00895A4E0B0E008950A92A5
:1006BC001A92FA926A937A938A939A93AA93BA9318
:1006CC00EA93FA93EFB7EA930895F0E0E458FE4FFB
:1006DC00E081E2BB089580EB94E00197F1F7089577
:1006EC00E12FF0E0E159FE4F0895E2E06E2E70909C
:1006FC006E010895D3DFE8E1F1E07BD00895E0E0EE
:10070C00E09360010895E6B3E295E370A3E0EA2775
:10071C000895E4E0E0938E010895E0918E01089530
:10072C00E150E0938E01F9DFE03008955A934A933B
:10073C003A932A931A930A9308955D814C813B81D5
:10074C002A81198108810895F195E195F040089569
:10075C00FA9FF02DEB9FF00DEA9FE02DF10D08951F
:10076C002AD0F6DF0EF4F0DF08950024112490E176
:10077C00AA0FBB1F001C111C0E1A1F0A18F40E0E18
:10078C001F1E01C0A1609A9599F7FD01D001089533
:10079C0012D0EBDF0EF4D8DF0895E894B7FF04C055
:1007AC00B195A195B0406894F7FDCEDFDEDFFD0179
:1007BC000EF4CADF0895E894F7FF02C0C5DF689411
:1007CC00B7FF06C0B195A195B04000F8039400FAAC
:1007DC000895119602D0FE2F1197E199FECFFF9349
:1007EC00FFB7F894AEBBBFBBE09AEDB3FFBFFF9170
:1007FC00089507D01196EF93EF2F03D0EF91119737
:10080C000895E19B02C0A895FCCF9FB7F894AEBBAE
:10081C00BFBBE09A8DB3E81719F0EDBBE29AE19AF1
:10082C009FBF0895EE27AC98A49A80EC93E00197B3
:10083C00F1F7A49885E28A95F1F79C9B08958BECCF
:10084C008A95F1F79C9BE1E08CE093E00197F1F73E
:10085C000895A49A85E08A95F1F7A4988DE18A957C
:10086C00F1F788949C990894E79585ED8A95F1F7B2
:10087C000895E894A49A85E08A95F1F770FDA49800
:10088C0083E28A95F1F79C9903C070FF03C0089529
:10089C0070FF089588EC8A95F1F7A4988DE08A95FD
:1008AC00F1F76894089568E0D4DF6A95E9F7089544
:1008BC007A2F68E0EE27DDDF26F477956A95D9F775
:1008CC00E3950895EE27AA2389F08A2F68E1A88181
:1008DC00B98198E0FD917F2F7E27779508F4E62764
:1008EC00E795F6959A95B9F78A9599F72296089512
:00000001FF
