:100000002FC0FECFFDCFFCCFFBCFFACFF9CFF8CF7B
:1000100034C1C8C0F5CFF4CFF3CFF2CFF1CFF0CFDA
:10002000EFCFEECFEDCF820000000B0B0B0BFA826F
:10003000D9CBA36B7BC2FBEB00019B787900280036
:1000400002000200260002000400280004006A01E9
:100050002A000F0079012E0001008B013E000000F4
:10006000F894EE27ECBBF1E0FBBFEBBFE5BF8DE002
:10007000A2E0BB27ED938A95E9F780E094E0A0E643
:10008000ED930197E9F7E0E4F0E085919591009711
:1000900061F0A591B59105901590BF01F001059013
:1000A0000D920197E1F7FB01F0CFEFE5EDBFE4E042
:1000B000EEBFC0E6D1E099C1BA93AA9395D324FCD0
:1000C00042C0AD81AA232AF4EC81FD8119D39F019E
:1000D00002C02C813D8110E0143098F4E3E0E11B74
:1000E000F0E0E659FE4FBF01D901EAE0F0E031D37C
:1000F000DB01EC93D901EAE0F0E026D39F011F5F1A
:10010000EBCFE0916A01E03051F4EAE0E0936A015C
:10011000E0916B01E03019F4EAE0E0936B01AD810E
:10012000AA231AF4EBE0E0936A01E42DE23011F423
:10013000ECE007C0E33021F0E03029F4CC2019F4E2
:10014000EEE0E0936A0157D3269608954FD3E42D4D
:10015000E030B9F4CC2019F40D2D112701C0830132
:1001600023D217D3E815F90519F0F4011DD221D3D4
:100170001ED20FD3EA15FB0519F0F50118D219D3D9
:100180000CC0E13011F4840108C0E23011F48501A3
:1001900004C0E33011F40D2D1127D8018DDF099132
:1001A0001991089507D2E5EBE2BFE0917701EF5F87
:1001B000E0937701EF73E09377016AD108C11A9356
:1001C00021FC04C080E496E00197F1F710E01430C0
:1001D00008F051C0689431F8E0917801EF5FE09346
:1001E0007801E0917701E07259F0442049F430FE43
:1001F00007C0A0917801E0E0E03011F4E89431F814
:10020000E0916A01E5D123FC03C0E0B3EB7FE2BBE0
:10021000E1E0E41519F4E0B3E77FE2BB31FC02C092
:10022000AA9801C0AA9ADBD1AA98E0916B01D0D11B
:1002300031FC02C0A99801C0A99AD1D1A998E09136
:100240006C01F0E0E758FE4FE081E095EB7FE2BB08
:1002500031FC02C0A89801C0A89AC1D1A898E09129
:100260006D01B6D131FC02C0AB9801C0AB9AB7D1D9
:10027000AB981F5FACCF199108959CD1B3D2EEEE2D
:10028000F5E8FDBDECBD689421F8D4D198DFACEC65
:1002900017D295DFE4E02E2622FE67C0AEEB10D227
:1002A0008EDF689425F8E89426F810E01930B0F451
:1002B0009BD1FF93EF93FFD1AF91BF91EC937FDF81
:1002C00093D1A081AF3F11F0E89425F88DD1E08162
:1002D000E03011F0689426F81F5FE8CFE89424F826
:1002E000EEE6F1E0FA93EA93A8E0F4D11E2FCC20D9
:1002F00049F4A0916E01A03529F4A0916F01A530B9
:1003000009F4115026FE1150E0917601E117E9F051
:10031000E1E0DE2E25FE02C0E2E00DC0A0916E01FC
:10032000A03531F4A0916F01A53011F4E3E0DE2E89
:1003300026FC02C0E4E0DE2EE0E0EC1508F4CA94EE
:10034000CC2011F4689430F80FC04EE651E0DA0189
:100350001CD2AAE0B0E0E0D1DF01E0E1F0E0F4D1AE
:100360003F01F4DEE2E0CE2E02C0A4E4A9D1CC200D
:1003700029F4C398689427F823F81EC024FC1CC0F5
:10038000F501E80DF91D9F016216730644F023FC88
:1003900002C027FE04C0C398E89423F827F894010C
:1003A000261537054CF023FE02C027FE05C0C39A70
:1003B000689423F8E89427F8E0E0E51510F45A94DF
:1003C00001C04424C3DEE89421F813D22696E991B3
:1003D000EFBFF991E991B991A99199918991799199
:1003E0006991F990199009901895C398E5E0E3BFD9
:1003F000E0E0E2BFEFBDE4E0EEBDEFEFEDBDEEEF1C
:10040000ECBDE0E0E2BDE5BDE4BDE3BDE5BFE5E098
:10041000E9BFE0E0EAB9E0E8E8B9E0E0E0BFE6B96A
:10042000EDB9E6BFE0937801C2D0B3D1319611F4B3
:10043000E0D0E4D0B9D0ADD1E33EA4E0FA0724F493
:10044000EA3DADEFFA070CF4D4D0B1D0A2D1EB3F26
:10045000A0E0FA0714F431970CF4D0D0A5D099D1CC
:100460004F01A5D096D15F01DD24E1E0CE2EE894C6
:1004700030F8689424F823F869DE689422F8E89448
:1004800020F8C1D07894F8949ADE7894FCCFFFCF0E
:10049000E0916001E03051F4BAD039F0B8D0E09387
:1004A0008901BBD0E1E0E093600133C0E130C1F4E9
:1004B000AED0A0918901EA1789F4B3D0B5D069F420
:1004C000689420F8E0918901E0938801E2E0E093EC
:1004D0006001A3D0E0E5E0938B0101C094D019C086
:1004E000E230B9F494D071F098D0E0918B01E03013
:1004F00029F4E8E0E0938B01689420F8E0918B0107
:10050000E15005C08ED090D021F47DD0E0E5E0939D
:100510008B0120FE03C0E89420F801D00895E091FB
:100520008801E130B9F4E42DE13049F4EAEDFDEF62
:10053000E815F9051CF4F40131974F010AC0E230C7
:1005400041F4E1E0F0E0EA15FB051CF4F501319718
:100550005F0124C0E230D1F4E42DE13061F4E2EE39
:10056000F4E0EA19FB098E169F0624F4F401319693
:100570004F0131970AC0E23041F4EAEFF0E0AE16E5
:10058000BF061CF4F50131965F0108C0E33031F479
:100590004394E3E0E41510F4E1E04E2EE5E05E2E36
:1005A000E89430F8D3DD0895A0E0B0E00895A2E02B
:1005B000B0E008950A921A92FA926A937A938A9313
:1005C0009A93AA93BA93EA93FA93EFB7EA930895AA
:1005D000F0E0E758FE4FE081E095E2BB089580EB44
:1005E00094E00197F1F70895E12FF0E0E259FE4F12
:1005F0000895DADFE6EEF0E0DCD00895D8DFE4E13C
:10060000F0E0D7D00895E0E0E09360010895E6B30C
:10061000E295E370A3E0EA270895E4E0E0938A011D
:100620000895E0918A010895E150E0938A01F9DF8D
:10063000E0300895EE27AC98A49A80EC93E00197FF
:10064000F1F7A49885E28A95F1F79C9B08958BECCD
:100650008A95F1F79C9BE1E08CE093E00197F1F73C
:100660000895A49A85E08A95F1F7A4988DE18A957A
:10067000F1F788949C990894E79585ED8A95F1F7B0
:100680000895E894A49A85E08A95F1F770FDA498FE
:1006900083E28A95F1F79C9903C070FF03C0089527
:1006A00070FF089588EC8A95F1F7A4988DE08A95FB
:1006B000F1F76894089568E0D4DF6A95E9F7089542
:1006C0007A2F68E0EE27DDDF26F477956A95D9F773
:1006D000E3950895EE27AA2389F08A2F68E1A8817F
:1006E000B98198E0FD917F2F7E27779508F4E62762
:1006F000E795F6959A95B9F78A9599F72296089510
:10070000F195E195F0400895FA9FF02DEB9FF00DE3
:10071000EA9FE02DF10D08952AD0F6DF0EF4F0DF08
:1007200008950024112490E1AA0FBB1F001C111C86
:100730000E1A1F0A18F40E0E1F1E01C0A1609A9512
:1007400099F7FD01D001089512D0EBDF0EF4D8DF48
:100750000895E894B7FF04C0A095B09511966894E9
:10076000F7FDCEDFDEDFFD010EF4CADF0895E89469
:10077000F7FF02C0C5DF6894B7FF06C0A095B0952B
:10078000119600F8039400FA0895ED91FC911197E9
:100790000895119602D0FE2F1197E199FECFFF9395
:1007A000FFB7F894AEBBBFBBE09AEDB3FFBFFF91BC
:1007B000089507D01196EF93EF2F03D0EF91119783
:1007C0000895E19B02C0A895FCCF9FB7F894AEBBFB
:1007D000BFBBE09A8DB3E81719F0EDBBE29AE19A3E
:1007E0009FBF08955A934A933A932A931A930A9370
:1007F00008955D814C813B812A811981088108958A
:00000001FF
